:100000000C9462000C948A000C948A000C948A0070
:100010000C948A000C948A000C948A000C948A0038
:100020000C948A000C948A000C948A000C94DA04D4
:100030000C948A000C948A000C948A000C948A0018
:100040000C9438040C948A000C94A8040C94820438
:100050000C948A000C948A000C948A000C948A00F8
:100060000C948A000C948A000000000023002600F3
:10007000290000000000240027002A0000000000E2
:10008000250028002B0004040404040404040202D4
:100090000202020203030303030301020408102007
:1000A0004080010204081020010204081020000012
:1000B0000008000201000003040700000000000027
:1000C0000000B10511241FBECFEFD4E0DEBFCDBFCD
:1000D00011E0A0E0B1E0EAEBF7E102C005900D927B
:1000E000A034B107D9F722E0A0E4B1E001C01D922D
:1000F000A833B207E1F710E0C2E6D0E004C02197D0
:10010000FE010E94E309C136D107C9F70E94E90543
:100110000C94DB0B0C940000833081F028F48130C8
:1001200099F08230A9F008958730A9F08830C9F09D
:100130008430B1F4809180008F7D03C08091800075
:100140008F7780938000089584B58F7784BD08955C
:1001500084B58F7DFBCF8091B0008F778093B00006
:1001600008958091B0008F7DF9CF1F93CF93DF93D7
:10017000282F30E0F901E255FF4F8491F901E6564E
:10018000FF4FD491F901EA57FF4FC491CC23A9F056
:10019000162F81110E948C00EC2FF0E0EE0FFF1F54
:1001A000E458FF4FA591B4918FB7F894EC911111D9
:1001B00008C0D095DE23DC938FBFDF91CF911F91D4
:1001C0000895DE2BF8CFCF93DF9390E0FC01E65645
:1001D000FF4F24918A579F4FFC0184918823C9F0D7
:1001E00090E0880F991FFC01EE58FF4FA591B49144
:1001F000FC01E458FF4FC591D49161110DC09FB728
:10020000F8948C91209582238C93888128232883CD
:100210009FBFDF91CF910895623051F49FB7F8945A
:100220003C91822F809583238C93E8812E2BEFCFF6
:100230008FB7F894EC912E2B2C938FBFEACF3FB75A
:10024000F8948091840190918501A0918601B091EC
:10025000870126B5A89B05C02F3F19F00196A11D67
:10026000B11D3FBFBA2FA92F982F8827BC01CD0100
:10027000620F711D811D911D42E0660F771F881F5F
:10028000991F4A95D1F708958F929F92AF92BF928E
:10029000CF92DF92EF92FF924B015C010E941F010F
:1002A0006B017C010E941F016C197D098E099F0959
:1002B000683E734081059105A8F321E0821A9108F8
:1002C000A108B10888EEC80E83E0D81EE11CF11C1D
:1002D00081149104A104B10429F7FF90EF90DF90FD
:1002E000CF90BF90AF909F908F900895AF92BF92A4
:1002F000CF92DF92EF92FF920F931F93CF93DF93F2
:100300006C017B018B01040F151FEB015E01AE1820
:10031000BF08C017D10759F06991D601ED91FC9142
:100320000190F081E02DC6010995892B79F7C5016F
:10033000DF91CF911F910F91FF90EF90DF90CF90C1
:10034000BF90AF900895FC01538D448D252F30E070
:10035000842F90E0821B930B541710F0CF960895D2
:1003600001970895FC01918D828D981761F0A28DFF
:10037000AE0FBF2FB11D5D968C91928D9F5F9F73C5
:10038000928F90E008958FEF9FEF08952FB7F89424
:100390008091880190918901A0918A01B0918B018F
:1003A0002FBF8093940190939501A0939601B093F1
:1003B00097018CE891E00E94B20197FF26C02FB709
:1003C000F8948091880190918901A0918A01B0915F
:1003D0008B012FBF4091940150919501609196013E
:1003E00070919701841B950BA60BB70B4091900160
:1003F000509191016091920170919301841795073A
:10040000A607B707B0F28FEF9FEF0895FC01918D1B
:10041000828D981731F0828DE80FF11D858D90E067
:1004200008958FEF9FEF0895FC01918D228D892F04
:1004300090E0805C9F4F821B91098F7399270895EC
:100440008CE891E00E94140221E0892B09F420E05D
:10045000822F089580E090E0892B29F00E942002ED
:1004600081110C9400000895FC01A48DA80FB92FF0
:10047000B11DA35ABF4F2C91848D90E001968F73CC
:100480009927848FA689B7892C93A089B1898C91EB
:10049000837080648C93938D848D981306C002883A
:1004A000F389E02D80818F7D80830895EF92FF9204
:1004B0000F931F93CF93DF93EC0181E0888F9B8D87
:1004C0008C8D98131AC0E889F989808185FF15C041
:1004D0009FB7F894EE89FF896083E889F989808164
:1004E0008370806480839FBF81E090E0DF91CF9133
:1004F0001F910F91FF90EF900895F62E0B8D10E055
:100500000F5F1F4F0F731127E02E8C8D8E110CC0C3
:100510000FB607FCFACFE889F989808185FFF5CF0E
:10052000CE010E943402F1CFEB8DEC0FFD2FF11DB7
:10053000E35AFF4FF0829FB7F8940B8FEA89FB894B
:1005400080818062CFCFCF93DF93EC01888D8823A9
:10055000B9F0AA89BB89E889F9898C9185FD03C026
:10056000808186FD0DC00FB607FCF7CF8C9185FF0B
:10057000F2CF808185FFEDCFCE010E943402E9CF1A
:10058000DF91CF9108958F929F92AF92BF92FF9289
:100590000F931F93CF93DF93FC01F0808BE08F15B7
:1005A00008F44AC0828108E512E0081B110987FDA2
:1005B0001395000F111F000F111F8181C8E8D0E0B3
:1005C000C81BD10987FDD395CC0FDD1FCC0FDD1FD4
:1005D0004E010D2E000CAA08BB089801012E000C3C
:1005E000440B550B281939094A095B09DB010E94A4
:1005F000670924EB30E040E050E00E943D09820EA4
:10060000931EA41EB51E8C169D062CF0E8018016C4
:1006100091060CF4E4012297CC0FDD1F2FB7F8945C
:100620008F2D90E0FC01EE0FFF1FE80FF91FEE5B2E
:10063000FE4FD283C1832FBFDF91CF911F910F91C6
:10064000FF90BF90AF909F908F9008951F93CF938E
:10065000DF93EC01162F88818C3008F04EC061E0EA
:10066000812F0E94E3008881282F30E0F901EE0FEE
:10067000FF1FE20FF31FEE5BFE4F1F736081607C74
:10068000612B608319821A822CE0622F0E94D709A5
:10069000829FB001112430E020E0AB01420F531FD4
:1006A000FA01EE0FFF1FE40FF51FEE5BFE4F908186
:1006B00096FD16C02F5F3F4F2C30310571F7811129
:1006C0000FC01092800082E080938100109285001C
:1006D00010928400B19A80916F00826080936F00C5
:1006E000E8818E2F90E0FC01EE0FFF1FE80FF91F4D
:1006F000EE5BFE4F8081806480838881DF91CF91A3
:100700001F910895FC0101900020E9F73197AF0196
:10071000481B590BBC018CE891E00C94760186E3F0
:1007200091E00C9482038F929F92AF92BF92CF92EE
:10073000DF92EF92FF920F931F93CF93DF93CDB78A
:10074000DEB7A1970FB6F894DEBF0FBECDBF6C0128
:10075000990FEE08FF08F7FE41C06DE28CE891E0CA
:100760000E9456028C0122273327A9012C193D092A
:100770004E095F0919A2CE0181967C019AE0892E6B
:10078000912CA12CB12CCA01B901A50194010E94A0
:10079000A609605DF70162937F01211531054105CE
:1007A000510589F790E080E0309719F0CF010E9461
:1007B0008203800F911FA1960FB6F894DEBF0FBE83
:1007C000CDBFDF91CF911F910F91FF90EF90DF9000
:1007D000CF90BF90AF909F908F900895A701960102
:1007E00019A28E010F5D1F4F8AE0C82ED12CE12C7B
:1007F000F12CCA01B901A70196010E94A609605D0A
:10080000F80162938F01211531054105510589F7E2
:1008100090E080E0309779F2CF010E948203CBCF45
:100820000F931F93CF93DF93EC01888199810097F9
:1008300059F02A813B812617370730F081E0DF919C
:10084000CF911F910F9108958B016F5F7F4F0E9491
:100850000E0B009759F0998388831B830A832C81A0
:100860003D81232B59F7FC011082E8CF80E0E7CFD0
:100870001F920F920FB60F9211242F933F938F93D5
:100880009F93AF93BF938091880190918901A0912C
:100890008A01B0918B013091830123E0230F2D3722
:1008A00058F50196A11DB11D209383018093880105
:1008B00090938901A0938A01B0938B018091840168
:1008C00090918501A0918601B09187010196A11DAB
:1008D000B11D8093840190938501A0938601B0930C
:1008E0008701BF91AF919F918F913F912F910F9071
:1008F0000FBE0F901F90189526E8230F0296A11D9A
:10090000B11DD2CF1F920F920FB60F9211242F93C9
:100910003F934F935F936F937F938F939F93AF9387
:10092000BF93EF93FF938CE891E00E943402FF9114
:10093000EF91BF91AF919F918F917F916F915F9157
:100940004F913F912F910F900FBE0F901F901895D0
:100950001F920F920FB60F9211242F938F939F9394
:10096000EF93FF93E0919C01F0919D018081E091D4
:10097000A201F091A30182FD1BC090818091A5018D
:100980008F5F8F732091A601821741F0E091A5013E
:10099000F0E0E457FE4F958F8093A501FF91EF9112
:1009A0009F918F912F910F900FBE0F901F901895D0
:1009B0008081F4CF1F920F920FB60F9211242F93C4
:1009C0003F934F935F936F937F938F939F93AF93D7
:1009D000BF93CF93DF93EF93FF9380914001C0913A
:1009E0004101D0E087FF24C010928500109284005E
:1009F000809140018F5F8093400180914001082EDB
:100A0000000C990B8C179D0724F4809140018C30C9
:100A1000C4F18091840090918500049680349C49B3
:100A200008F47AC08091840090918500049676C085
:100A300080914001082E000C990B8C179D07C4F67D
:100A4000E09140018E2FEE0F990BFC01EE0FFF1F7E
:100A5000E80FF91FEE5BFE4F808186FFC9CFE09162
:100A600040018E2FEE0F990BFC01EE0FFF1FE80FD8
:100A7000F91FEE5BFE4F808160E08F730E94B5002E
:100A8000B7CF2091840030918500E09140018E2FF6
:100A9000EE0F990BFC01EE0FFF1FE80FF91FEE5B45
:100AA000FE4F81819281820F931F909389008093E2
:100AB0008800E09140018E2FEE0F990BFC01EE0FA4
:100AC000FF1FE80FF91FEE5BFE4F808186FF11C00C
:100AD000E09140018E2FEE0F990BFC01EE0FFF1FEE
:100AE000E80FF91FEE5BFE4F808161E08F730E947B
:100AF000B500FF91EF91DF91CF91BF91AF919F91A1
:100B00008F917F916F915F914F913F912F910F90B6
:100B10000FBE0F901F90189580E49CE99093890078
:100B2000809388008FEF80934001E3CFFC01909188
:100B300041019C3098F481E0890F809341019083BA
:100B4000892F90E0FC01EE0FFF1FE80FF91FEE5B0D
:100B5000FE4F88EB9BE09283818308958FEF808323
:100B60000895ECE8F1E01382128288EE93E0A0E0B1
:100B7000B0E084839583A683B78388E291E0918374
:100B8000808385EC90E09587848784EC90E097875C
:100B9000868780EC90E0918B808B81EC90E0938B4A
:100BA000828B82EC90E0958B848B86EC90E0978B27
:100BB000868B118E128E138E148E8FE292E00E941D
:100BC00096058CE292E00E94960589E292E00C94F0
:100BD0009605CF93DF93CDB7DEB72A970FB6F8947B
:100BE000DEBF0FBECDBF789484B5826084BD84B56E
:100BF000816084BD85B5826085BD85B5816085BD18
:100C000080916E00816080936E00109281008091CF
:100C10008100826080938100809181008160809357
:100C20008100809180008160809380008091B1007C
:100C300084608093B1008091B00081608093B000A7
:100C400080917A00846080937A0080917A0082603B
:100C500080937A0080917A00816080937A008091FD
:100C60007A00806880937A001092C100E0919C0124
:100C7000F0919D0182E08083E0919801F0919901CB
:100C80001082E0919A01F0919B018FEC8083109289
:100C9000A401E091A001F091A10186E08083E091A0
:100CA0009E01F0919F01808180618083E0919E018F
:100CB000F0919F01808188608083E0919E01F09196
:100CC0009F01808180688083E0919E01F0919F0167
:100CD00080818F7D808362E08EE00E94E30062E08D
:100CE0008FE00E94E30062E080E10E94E30060E0A8
:100CF00081E10E94E30060E082E10E94E30060E0A5
:100D000083E10E94E30060E084E10E94E30063E08D
:100D100070E08FE292E00E94260370E060E08FE2D4
:100D200092E00E94C30265E070E08CE292E00E94D3
:100D3000260370E060E08CE292E00E94C3026AE069
:100D400070E089E292E00E94260370E060E089E2B0
:100D500092E00E94C30206E011E0F801F0800E5F0D
:100D60001F4F61E08F2D0E94E30061E08F2D0E94F4
:100D7000B500F1E00E301F0781F761E082E00E94CC
:100D8000E3007AE0A72E71E0B72EF5011081F2E0C2
:100D9000AF0EB11C61E0812F0E94E30061E0812F62
:100DA0000E94B50026E1A21621E0B20671F754E1D7
:100DB000452E512C612C712C64E7262E61E0362ED5
:100DC0000EE111E040E8E42E41E0F42EF80121911B
:100DD00031918F013327F901E255FF4F8491F901D9
:100DE000E656FF4FD490F901EA57FF4FC490CC204C
:100DF00009F4A3C081110E948C00EC2DF0E0EE0FED
:100E0000FF1FE859FF4FA591B491EC91DE2231E02C
:100E100020E009F430E0832F922FF1E08F278170DA
:100E2000F70181937F01F1E004321F0709F0CECF73
:100E300006E111E024E7C22E21E0D22EF8019081D4
:100E40000E5F1F4F82EF890F9E3008F4892F877045
:100E5000E82FE06494E1E92EF12C60E070E0CB0132
:100E6000E0937C0020917A00206420937A00209106
:100E70007A0026FDFCCF2091780030917900032E76
:100E8000000C440B550B620F731F841F951FF1E07C
:100E9000EF1AF10829F7A30192010E943D09F6011A
:100EA000219331936F01F1E00E311F0739F68CE881
:100EB00091E00E941402181619060CF0B1C01A82B3
:100EC00019821C821B821E821D8270E060E0CE01AE
:100ED00001960E94100429813A81811131C02115A7
:100EE000310519F0C9010E94850A1A8219821E82F1
:100EF0001D821C821B820E94C60197FD29C08A3078
:100F0000910531F18F8318860D811E810F5F1F4F70
:100F1000B801CE0101960E941004882361F3298153
:100F20003A818D819E81BE01695F7F4F820F931F41
:100F30000E94D40B1E830D83DECF90E080E06DCF46
:100F40001E821D826CE371E0C9010E94D40BD3CFD5
:100F500089809A808114910431F00D811E81640191
:100F60000115110509F566E371E089819A810E94F6
:100F7000FD080DE611E0009709F44CC0201631067B
:100F800009F448C00E94DF0821E0892B09F420E021
:100F9000F80121938F0166E371E090E080E00E9408
:100FA000FD08E9CFC984DA84C60101969A8789874A
:100FB000F6018081082E000C990B0E943109892BC3
:100FC00089F701501109080D191DF8018081082EBB
:100FD000000C990B0E943109892B31F00C151D056D
:100FE00018F001501109F1CFA8014F5F5F4F4C1964
:100FF0005D095E834D838C149D0420F4B601C40109
:101000000E94CB0BE981FA818D819E81E80FF91F47
:101010001082A9CF89819A81009711F00E94850AD8
:101020008EE6C82E81E0D82E0AE011E0F60161912B
:101030006F01F80180810E5F1F4F0E94B500A0165E
:10104000B106A1F79091800190936D0180916601A6
:1010500091118FC0882351F160E082E00E94B500B9
:1010600064EF71E080E090E00E9444010AE510E046
:10107000B8018FE292E00E94C302B8018CE292E0D4
:101080000E94C30264E670E080E090E00E944401A8
:10109000025011090E3FFFEF1F0751F788E391E05F
:1010A0000E9482038AE391E00E948203EDE6F1E070
:1010B000A6E6B1E081918D932E163F06D9F7809177
:1010C000800190E00E9493030E948F038091810130
:1010D00090E00E9493030E948F038091820190E030
:1010E0000E9493030E948F03809174019091750177
:1010F0000E9493030E948F03809176019091770163
:101100000E9493030E948F0380917801909179014E
:101110000E9493030E948F0380917A0190917B013A
:101120000E9493030E948F0380917C0190917D0126
:101130000E9493030E948F0380917E0190917F0112
:101140000E9493038AE391E00E94820364E670E0C8
:1011500080E090E00E94440180E090E0892B09F457
:101160002FCE0E942002882309F42ACE0E9400007C
:1011700027CE81119BCFB7018FE292E00E94C3027C
:10118000B7018CE292E00E94C30264E670E080E066
:1011900090E00E94440122E0E20EF11C8AE5E8168C
:1011A000F10449F764EF71E080E090E00E944401AF
:1011B00061E082E00E94B5008DE391E071CFFC0117
:1011C00088279927E89421912032E9F3293010F0FB
:1011D0002E30C8F32B3241F02D3239F4689404C01C
:1011E0000E942909820F911D219120532A30C0F3BA
:1011F0001EF4909581959F4F089542E352E00E941E
:1012000002090895FA01A191B081009719F410978D
:10121000E1F0CD01DC01CD010D90002011F4C00101
:1012200013C0FB012191222319F02015D9F7F3CF28
:10123000FB012191201519F41E92119606C022235C
:10124000C1F70D900020A1F7D001FA01A193B0835E
:1012500008957AE0979F902D879F802D910D1124FE
:10126000089591110C943A09803219F089508550F3
:10127000C8F70895992788270895052E97FB1EF42F
:1012800000940E94540957FD07D00E94A60907FC4C
:1012900003D04EF40C945409509540953095219507
:1012A0003F4F4F4F5F4F0895909580957095619592
:1012B0007F4F8F4F9F4F08950E94C809A59F900DA3
:1012C000B49F900DA49F800D911D11240895B7FF28
:1012D0000C945C090E945C09821B930B08952F9269
:1012E0003F924F925F926F927F928F929F92AF92B6
:1012F000BF92CF92DF92EF92FF920F931F93CF9303
:10130000DF93CDB7DEB7CA1BDB0B0FB6F894DEBF99
:101310000FBECDBF09942A88398848885F846E84BF
:101320007D848C849B84AA84B984C884DF80EE8009
:10133000FD800C811B81AA81B981CE0FD11D0FB612
:10134000F894DEBF0FBECDBFED010895A1E21A2EC5
:10135000AA1BBB1BFD010DC0AA1FBB1FEE1FFF1F59
:10136000A217B307E407F50720F0A21BB30BE40BA9
:10137000F50B661F771F881F991F1A9469F76095F0
:101380007095809590959B01AC01BD01CF010895AA
:10139000A29FB001B39FC001A39F700D811D1124B6
:1013A000911DB29F700D811D1124911D0895991BEF
:1013B00079E004C0991F961708F0961B881F7A954C
:1013C000C9F780950895EE0FFF1F0590F491E02D69
:1013D00009940F931F93CF93DF938230910510F4FC
:1013E00082E090E0E0913602F091370230E020E0B8
:1013F000B0E0A0E0309799F42115310509F44AC016
:10140000281B390B24303105D8F58A819B81611561
:10141000710589F1FB0193838283FE0111C0408134
:1014200051810281138148175907E0F04817590785
:1014300099F4109761F012960C93129713961C93DF
:101440003296CF01DF91CF911F910F9108950093B4
:10145000360210933702F4CF2115310551F04217AF
:10146000530738F0A901DB019A01BD01DF01F80142
:10147000C1CFEF01F9CF9093370280933602CDCFE1
:10148000FE01E20FF31F81939193225031093983BA
:101490002883D7CF2091340230913502232B41F499
:1014A00020910201309103013093350220933402E0
:1014B00020910001309101012115310541F42DB732
:1014C0003EB74091040150910501241B350BE0917A
:1014D0003402F0913502E217F307A0F42E1B3F0B04
:1014E0002817390778F0AC014E5F5F4F2417350796
:1014F00048F04E0F5F1F50933502409334028193A2
:1015000091939FCFF0E0E0E09CCFCF93DF930097E3
:10151000E9F0FC01329713821282A0913602B09159
:101520003702ED0130E020E01097A1F420813181F5
:10153000820F931F2091340230913502281739070A
:1015400009F061C0F0933502E0933402DF91CF914E
:101550000895EA01CE17DF07E8F54A815B819E0115
:1015600041155105B1F7E901FB83EA83499159918E
:10157000C40FD51FEC17FD0761F48081918102969D
:10158000840F951FE90199838883828193819B83CE
:101590008A83F0E0E0E012968D919C91139700977A
:1015A000B9F52D913C911197CD010296820F931FB1
:1015B00020913402309135022817390739F63097D7
:1015C00051F51092370210923602B0933502A09373
:1015D0003402BCCFD383C28340815181840F951FD5
:1015E000C817D90761F44E5F5F4F88819981480F12
:1015F000591F518340838A819B8193838283211564
:10160000310509F0B0CFF0933702E09336029ECF58
:10161000FD01DC01C0CF13821282D7CFB0E0A0E081
:10162000E4E1FBE00C9471098C01009751F4CB01CB
:101630000E94E9098C01C801CDB7DEB7E0E10C9446
:101640008D09FC01E60FF71F9C0122503109E217BA
:10165000F30708F49DC0D901CD91DC911197C6170D
:10166000D70798F0C530D10530F3CE01049786171F
:10167000970708F3C61BD70B2297C193D1936D939D
:101680007C93CF010E94850AD6CF5B01AC1ABD0ABC
:101690004C018C0E9D1EA0913602B0913702512C48
:1016A000412CF12CE12C109731F58091340290916E
:1016B00035028815990509F05CC04616570608F0F2
:1016C00058C08091000190910101009741F48DB7BD
:1016D0009EB74091040150910501841B950BE817BA
:1016E000F90708F055C0F0933502E0933402F90190
:1016F00071836083A0CF8D919C91119712966C900D
:10170000129713967C901397A815B90559F56C019B
:1017100042E0C40ED11CCA14DB0420F1AC014A190A
:101720005B09DA011296159780F062827382518309
:101730004083D9016D937C93E114F10471F0D701DA
:101740001396FC93EE93129776CF22968C0F9D1FE3
:10175000F90191838083F301EFCFF0933702E09397
:10176000360269CF4816590608F42C017D01D301D1
:101770009ACFCB010E94E9097C01009749F0AE01A4
:10178000B8010E94CB0BC8010E94850A870153CF84
:1017900010E000E050CFFB01DC0102C001900D928F
:1017A00041505040D8F70895FB01DC0101900D92A3
:0A17B0000020E1F70895F894FFCF40
:1017BA000000380280000600090004000700080043
:1017CA000B000C00150011001200130014000E008B
:1017DA000F0010000000000056027601A301A302C8
:1017EA001402B20106022C0031000D0A0032000078
:00000001FF
